{
  "transactions": [
    {
      "hash": "0x15954b3f10e047c44e675d3f7acf076d210ae5dba216853dc61eabec0458f0d3",
      "transactionType": "CALL",
      "contractName": null,
      "contractAddress": "0x0ff833129533546d96a5847c22b57aacccd00fd5",
      "function": "mintNFT(address)",
      "arguments": [
        "0xf39Fd6e51aad88F6F4ce6aB8827279cffFb92266"
      ],
      "transaction": {
        "from": "0xf39fd6e51aad88f6f4ce6ab8827279cfffb92266",
        "to": "0x0ff833129533546d96a5847c22b57aacccd00fd5",
        "gas": "0x176e68",
        "value": "0x0",
        "input": "0x54ba0f27000000000000000000000000f39fd6e51aad88f6f4ce6ab8827279cfffb92266",
        "nonce": "0x39b",
        "chainId": "0x457"
      },
      "additionalContracts": [],
      "isFixedGasLimit": false
    },
    {
      "hash": "0x7202d91211cbd78ea4b506527946cfa6cfb8c87c82164c7e9df07f0535959d67",
      "transactionType": "CALL",
      "contractName": null,
      "contractAddress": "0x0ff833129533546d96a5847c22b57aacccd00fd5",
      "function": "approveMarketplace(address,uint256)",
      "arguments": [
        "0x70997970C51812dc3A010C7d01b50e0d17dc79C8",
        "0"
      ],
      "transaction": {
        "from": "0xf39fd6e51aad88f6f4ce6ab8827279cfffb92266",
        "to": "0x0ff833129533546d96a5847c22b57aacccd00fd5",
        "gas": "0x11a80",
        "value": "0x0",
        "input": "0x2326cd8500000000000000000000000070997970c51812dc3a010c7d01b50e0d17dc79c80000000000000000000000000000000000000000000000000000000000000000",
        "nonce": "0x39c",
        "chainId": "0x457"
      },
      "additionalContracts": [],
      "isFixedGasLimit": false
    }
  ],
  "receipts": [
    {
      "status": "0x1",
      "cumulativeGasUsed": "0x10057a",
      "logs": [
        {
          "address": "0x0ff833129533546d96a5847c22b57aacccd00fd5",
          "topics": [
            "0xddf252ad1be2c89b69c2b068fc378daa952ba7f163c4a11628f55a4df523b3ef",
            "0x0000000000000000000000000000000000000000000000000000000000000000",
            "0x000000000000000000000000f39fd6e51aad88f6f4ce6ab8827279cfffb92266",
            "0x0000000000000000000000000000000000000000000000000000000000000000"
          ],
          "data": "0x",
          "blockHash": "0x3ad253e2b7b5bddc59c5c130374edf8f856af3dfae27940c0e80f5a16a60c8b1",
          "blockNumber": "0x151fb50",
          "blockTimestamp": "0x67e779fc",
          "transactionHash": "0x15954b3f10e047c44e675d3f7acf076d210ae5dba216853dc61eabec0458f0d3",
          "transactionIndex": "0x0",
          "logIndex": "0x0",
          "removed": false
        }
      ],
      "logsBloom": "0x00000000000000000000000000000000000000000000000000000000000000000000000000000000000000000000000000000000000000000000000000000000000000000400000000000008000000000000000000000000000000000000000000400000020000000000000100000800000000000000000000000010000000000000000000000000000000000000000000000000000000000000000000000000000000000000000000000000000000000000000000000000000000000000000000000002000000200000000000000000000000002004000000000000000020000000000000000000000000000000000000000000000000000000000000000000",
      "type": "0x2",
      "transactionHash": "0x15954b3f10e047c44e675d3f7acf076d210ae5dba216853dc61eabec0458f0d3",
      "transactionIndex": "0x0",
      "blockHash": "0x3ad253e2b7b5bddc59c5c130374edf8f856af3dfae27940c0e80f5a16a60c8b1",
      "blockNumber": "0x151fb50",
      "gasUsed": "0x10057a",
      "effectiveGasPrice": "0x104b1c15",
      "blobGasPrice": "0x744c2",
      "from": "0xf39fd6e51aad88f6f4ce6ab8827279cfffb92266",
      "to": "0x0ff833129533546d96a5847c22b57aacccd00fd5",
      "contractAddress": null
    },
    {
      "status": "0x1",
      "cumulativeGasUsed": "0xc12a",
      "logs": [
        {
          "address": "0x0ff833129533546d96a5847c22b57aacccd00fd5",
          "topics": [
            "0x8c5be1e5ebec7d5bd14f71427d1e84f3dd0314c0f7b2291e5b200ac8c7c3b925",
            "0x000000000000000000000000f39fd6e51aad88f6f4ce6ab8827279cfffb92266",
            "0x00000000000000000000000070997970c51812dc3a010c7d01b50e0d17dc79c8",
            "0x0000000000000000000000000000000000000000000000000000000000000000"
          ],
          "data": "0x",
          "blockHash": "0x1c316c9d0bb7d761f8dbb09169773a7ca7887179e1acb1bc57d749d675ff5e90",
          "blockNumber": "0x151fb51",
          "blockTimestamp": "0x67e779fc",
          "transactionHash": "0x7202d91211cbd78ea4b506527946cfa6cfb8c87c82164c7e9df07f0535959d67",
          "transactionIndex": "0x0",
          "logIndex": "0x0",
          "removed": false
        }
      ],
      "logsBloom": "0x00000000000000000002000000000000000000000000000000000000000000000000000000000000000000000000000000000000000000000000000000200000000000000400000000000000000000000000000000000000000000000000000000400800020000000000000100000800000000000000000000000000000000000000000000000000000000000000000000000000000000000000000000000000020000000000000000000000000000000000000000000000000000000000000000000000000000200000000000000000000000002004000000000000000020000010000000000000000000000000000001000000000000000000000000000000",
      "type": "0x2",
      "transactionHash": "0x7202d91211cbd78ea4b506527946cfa6cfb8c87c82164c7e9df07f0535959d67",
      "transactionIndex": "0x0",
      "blockHash": "0x1c316c9d0bb7d761f8dbb09169773a7ca7887179e1acb1bc57d749d675ff5e90",
      "blockNumber": "0x151fb51",
      "gasUsed": "0xc12a",
      "effectiveGasPrice": "0xe7929e0",
      "blobGasPrice": "0x67602",
      "from": "0xf39fd6e51aad88f6f4ce6ab8827279cfffb92266",
      "to": "0x0ff833129533546d96a5847c22b57aacccd00fd5",
      "contractAddress": null
    }
  ],
  "libraries": [],
  "pending": [],
  "returns": {},
  "timestamp": 1743223305,
  "chain": 1111,
  "commit": "73f2599"
}