{
  "transactions": [
    {
      "hash": "0x05a7151a48c158c7d661c16627d353eb9594056d86bd660965640c0674695405",
      "transactionType": "CALL",
      "contractName": null,
      "contractAddress": "0xa86582ad5e80abc19f95f8a9fb3905cda0dabd59",
      "function": "mintNFT(address)",
      "arguments": [
        "0xf39Fd6e51aad88F6F4ce6aB8827279cffFb92266"
      ],
      "transaction": {
        "from": "0xf39fd6e51aad88f6f4ce6ab8827279cfffb92266",
        "to": "0xa86582ad5e80abc19f95f8a9fb3905cda0dabd59",
        "gas": "0x176e68",
        "value": "0x0",
        "input": "0x54ba0f27000000000000000000000000f39fd6e51aad88f6f4ce6ab8827279cfffb92266",
        "nonce": "0x3a1",
        "chainId": "0x457"
      },
      "additionalContracts": [],
      "isFixedGasLimit": false
    },
    {
      "hash": "0xec87f972ea57ed91526528270634e2865b3ea5af369bced379e7451f6836800c",
      "transactionType": "CALL",
      "contractName": null,
      "contractAddress": "0xa86582ad5e80abc19f95f8a9fb3905cda0dabd59",
      "function": "approveMarketplace(address,uint256)",
      "arguments": [
        "0x70997970C51812dc3A010C7d01b50e0d17dc79C8",
        "0"
      ],
      "transaction": {
        "from": "0xf39fd6e51aad88f6f4ce6ab8827279cfffb92266",
        "to": "0xa86582ad5e80abc19f95f8a9fb3905cda0dabd59",
        "gas": "0x11a80",
        "value": "0x0",
        "input": "0x2326cd8500000000000000000000000070997970c51812dc3a010c7d01b50e0d17dc79c80000000000000000000000000000000000000000000000000000000000000000",
        "nonce": "0x3a2",
        "chainId": "0x457"
      },
      "additionalContracts": [],
      "isFixedGasLimit": false
    }
  ],
  "receipts": [
    {
      "status": "0x1",
      "cumulativeGasUsed": "0x10057a",
      "logs": [
        {
          "address": "0xa86582ad5e80abc19f95f8a9fb3905cda0dabd59",
          "topics": [
            "0xddf252ad1be2c89b69c2b068fc378daa952ba7f163c4a11628f55a4df523b3ef",
            "0x0000000000000000000000000000000000000000000000000000000000000000",
            "0x000000000000000000000000f39fd6e51aad88f6f4ce6ab8827279cfffb92266",
            "0x0000000000000000000000000000000000000000000000000000000000000000"
          ],
          "data": "0x",
          "blockHash": "0x44ce24acd3d9243d9606dc1129a848c6743343dfb5bf6d638b637552938f869c",
          "blockNumber": "0x152176b",
          "blockTimestamp": "0x67e8c02c",
          "transactionHash": "0x05a7151a48c158c7d661c16627d353eb9594056d86bd660965640c0674695405",
          "transactionIndex": "0x0",
          "logIndex": "0x0",
          "removed": false
        }
      ],
      "logsBloom": "0x00000000000000000000000000000000000000000000000000000800000000000000000000000000000000000000000000000000000000000000000000000000000000000000000000000008000000000000000000000000000000000000000000000000020000000000000100000800000000000000000000000010000000000100000000000000000000000000000000000000000000000000000000000000000000000080000000000000000000000000000000000000000000000000000000000002000000200000000000000000000000002000000000000000000020000000000000000000000000000000000000000000000000000000000000000000",
      "type": "0x2",
      "transactionHash": "0x05a7151a48c158c7d661c16627d353eb9594056d86bd660965640c0674695405",
      "transactionIndex": "0x0",
      "blockHash": "0x44ce24acd3d9243d9606dc1129a848c6743343dfb5bf6d638b637552938f869c",
      "blockNumber": "0x152176b",
      "gasUsed": "0x10057a",
      "effectiveGasPrice": "0x1a92546c",
      "blobGasPrice": "0x11",
      "from": "0xf39fd6e51aad88f6f4ce6ab8827279cfffb92266",
      "to": "0xa86582ad5e80abc19f95f8a9fb3905cda0dabd59",
      "contractAddress": null
    },
    {
      "status": "0x1",
      "cumulativeGasUsed": "0xc12a",
      "logs": [
        {
          "address": "0xa86582ad5e80abc19f95f8a9fb3905cda0dabd59",
          "topics": [
            "0x8c5be1e5ebec7d5bd14f71427d1e84f3dd0314c0f7b2291e5b200ac8c7c3b925",
            "0x000000000000000000000000f39fd6e51aad88f6f4ce6ab8827279cfffb92266",
            "0x00000000000000000000000070997970c51812dc3a010c7d01b50e0d17dc79c8",
            "0x0000000000000000000000000000000000000000000000000000000000000000"
          ],
          "data": "0x",
          "blockHash": "0x6b65aa4f913ef926ff8c5cadc48a12b92060779897ccf45c3ac149d8e5219487",
          "blockNumber": "0x152176c",
          "blockTimestamp": "0x67e8c02c",
          "transactionHash": "0xec87f972ea57ed91526528270634e2865b3ea5af369bced379e7451f6836800c",
          "transactionIndex": "0x0",
          "logIndex": "0x0",
          "removed": false
        }
      ],
      "logsBloom": "0x00000000000000000002000000000000000000000000000000000800000000000000000000000000000000000000000000000000000000000000000000200000000000000000000000000000000000000000000000000000000000000000000000000800020000000000000100000800000000000000000000000000000000000100000000000000000000000000000000000000000000000000000000000000020000000080000000000000000000000000000000000000000000000000000000000000000000200000000000000000000000002000000000000000000020000010000000000000000000000000000001000000000000000000000000000000",
      "type": "0x2",
      "transactionHash": "0xec87f972ea57ed91526528270634e2865b3ea5af369bced379e7451f6836800c",
      "transactionIndex": "0x0",
      "blockHash": "0x6b65aa4f913ef926ff8c5cadc48a12b92060779897ccf45c3ac149d8e5219487",
      "blockNumber": "0x152176c",
      "gasUsed": "0xc12a",
      "effectiveGasPrice": "0x17cf123a",
      "blobGasPrice": "0xf",
      "from": "0xf39fd6e51aad88f6f4ce6ab8827279cfffb92266",
      "to": "0xa86582ad5e80abc19f95f8a9fb3905cda0dabd59",
      "contractAddress": null
    }
  ],
  "libraries": [],
  "pending": [],
  "returns": {},
  "timestamp": 1743306808,
  "chain": 1111,
  "commit": "c4369a3"
}