{
  "transactions": [
    {
      "hash": "0x34cc435507f3a5d7013563b2bcb7948fde528a5e5875b6a84fbddfed5cbb6c69",
      "transactionType": "CALL",
      "contractName": null,
      "contractAddress": "0x039d7496e432c6aea4c24648a59318b3cbe09942",
      "function": "mintNFT(address)",
      "arguments": [
        "0xf39Fd6e51aad88F6F4ce6aB8827279cffFb92266"
      ],
      "transaction": {
        "from": "0xf39fd6e51aad88f6f4ce6ab8827279cfffb92266",
        "to": "0x039d7496e432c6aea4c24648a59318b3cbe09942",
        "gas": "0x176e68",
        "value": "0x0",
        "input": "0x54ba0f27000000000000000000000000f39fd6e51aad88f6f4ce6ab8827279cfffb92266",
        "nonce": "0x3a6",
        "chainId": "0x457"
      },
      "additionalContracts": [],
      "isFixedGasLimit": false
    },
    {
      "hash": "0x75b03e3fe8de6e2cf67ff28c3a0017071bb72e12f0a4f6eb1cd4488bc348649a",
      "transactionType": "CALL",
      "contractName": null,
      "contractAddress": "0x039d7496e432c6aea4c24648a59318b3cbe09942",
      "function": "approveMarketplace(address,uint256)",
      "arguments": [
        "0x70997970C51812dc3A010C7d01b50e0d17dc79C8",
        "0"
      ],
      "transaction": {
        "from": "0xf39fd6e51aad88f6f4ce6ab8827279cfffb92266",
        "to": "0x039d7496e432c6aea4c24648a59318b3cbe09942",
        "gas": "0x11a80",
        "value": "0x0",
        "input": "0x2326cd8500000000000000000000000070997970c51812dc3a010c7d01b50e0d17dc79c80000000000000000000000000000000000000000000000000000000000000000",
        "nonce": "0x3a7",
        "chainId": "0x457"
      },
      "additionalContracts": [],
      "isFixedGasLimit": false
    }
  ],
  "receipts": [
    {
      "status": "0x1",
      "cumulativeGasUsed": "0x10057a",
      "logs": [
        {
          "address": "0x039d7496e432c6aea4c24648a59318b3cbe09942",
          "topics": [
            "0xddf252ad1be2c89b69c2b068fc378daa952ba7f163c4a11628f55a4df523b3ef",
            "0x0000000000000000000000000000000000000000000000000000000000000000",
            "0x000000000000000000000000f39fd6e51aad88f6f4ce6ab8827279cfffb92266",
            "0x0000000000000000000000000000000000000000000000000000000000000000"
          ],
          "data": "0x",
          "blockHash": "0x7205b64f99e1da1478bd44a892cc95669abdd83cd739e4943eaa17398e658315",
          "blockNumber": "0x1523f87",
          "blockTimestamp": "0x67eaa3b0",
          "transactionHash": "0x34cc435507f3a5d7013563b2bcb7948fde528a5e5875b6a84fbddfed5cbb6c69",
          "transactionIndex": "0x0",
          "logIndex": "0x0",
          "removed": false
        }
      ],
      "logsBloom": "0x00000000000000000000000000000000000000000000000000000000000000000000000000000000000000000000000000000000000000000000000000000000000000000000000000000008000000000000000000000000000000000000000000000000020000000000000100000800000000400040000000000010000000000000000000000000000000000000000000000000000000000000000000000000000000000000000000000000000000000000000000000000000000000000000000000002000000200000000000000000000000002000000000000000000020000004000000000000000000000000000000000000000000000000000000000000",
      "type": "0x2",
      "transactionHash": "0x34cc435507f3a5d7013563b2bcb7948fde528a5e5875b6a84fbddfed5cbb6c69",
      "transactionIndex": "0x0",
      "blockHash": "0x7205b64f99e1da1478bd44a892cc95669abdd83cd739e4943eaa17398e658315",
      "blockNumber": "0x1523f87",
      "gasUsed": "0x10057a",
      "effectiveGasPrice": "0x4e4edde6",
      "blobGasPrice": "0x1f3e2b33d",
      "from": "0xf39fd6e51aad88f6f4ce6ab8827279cfffb92266",
      "to": "0x039d7496e432c6aea4c24648a59318b3cbe09942",
      "contractAddress": null
    },
    {
      "status": "0x1",
      "cumulativeGasUsed": "0xc12a",
      "logs": [
        {
          "address": "0x039d7496e432c6aea4c24648a59318b3cbe09942",
          "topics": [
            "0x8c5be1e5ebec7d5bd14f71427d1e84f3dd0314c0f7b2291e5b200ac8c7c3b925",
            "0x000000000000000000000000f39fd6e51aad88f6f4ce6ab8827279cfffb92266",
            "0x00000000000000000000000070997970c51812dc3a010c7d01b50e0d17dc79c8",
            "0x0000000000000000000000000000000000000000000000000000000000000000"
          ],
          "data": "0x",
          "blockHash": "0x050a4fc5e82017d3869cd38dee1f8ffc7041af2e46d5e52cb24e0714b75f8d6b",
          "blockNumber": "0x1523f88",
          "blockTimestamp": "0x67eaa3b0",
          "transactionHash": "0x75b03e3fe8de6e2cf67ff28c3a0017071bb72e12f0a4f6eb1cd4488bc348649a",
          "transactionIndex": "0x0",
          "logIndex": "0x0",
          "removed": false
        }
      ],
      "logsBloom": "0x00000000000000000002000000000000000000000000000000000000000000000000000000000000000000000000000000000000000000000000000000200000000000000000000000000000000000000000000000000000000000000000000000000800020000000000000100000800000000400040000000000000000000000000000000000000000000000000000000000000000000000000000000000000020000000000000000000000000000000000000000000000000000000000000000000000000000200000000000000000000000002000000000000000000020000014000000000000000000000000000001000000000000000000000000000000",
      "type": "0x2",
      "transactionHash": "0x75b03e3fe8de6e2cf67ff28c3a0017071bb72e12f0a4f6eb1cd4488bc348649a",
      "transactionIndex": "0x0",
      "blockHash": "0x050a4fc5e82017d3869cd38dee1f8ffc7041af2e46d5e52cb24e0714b75f8d6b",
      "blockNumber": "0x1523f88",
      "gasUsed": "0xc12a",
      "effectiveGasPrice": "0x459c5464",
      "blobGasPrice": "0x1bc57bb5f",
      "from": "0xf39fd6e51aad88f6f4ce6ab8827279cfffb92266",
      "to": "0x039d7496e432c6aea4c24648a59318b3cbe09942",
      "contractAddress": null
    }
  ],
  "libraries": [],
  "pending": [],
  "returns": {},
  "timestamp": 1743430588,
  "chain": 1111,
  "commit": "c4369a3"
}