{
  "transactions": [
    {
      "hash": "0x97a51201602901eb90195343358fad0516036372b3330c4814677c2bd9e4037c",
      "transactionType": "CALL",
      "contractName": null,
      "contractAddress": "0xa86582ad5e80abc19f95f8a9fb3905cda0dabd59",
      "function": "mintNFT(address)",
      "arguments": [
        "0xf39Fd6e51aad88F6F4ce6aB8827279cffFb92266"
      ],
      "transaction": {
        "from": "0xf39fd6e51aad88f6f4ce6ab8827279cfffb92266",
        "to": "0xa86582ad5e80abc19f95f8a9fb3905cda0dabd59",
        "gas": "0x16ab07",
        "value": "0x0",
        "input": "0x54ba0f27000000000000000000000000f39fd6e51aad88f6f4ce6ab8827279cfffb92266",
        "nonce": "0x3a3",
        "chainId": "0x457"
      },
      "additionalContracts": [],
      "isFixedGasLimit": false
    },
    {
      "hash": "0x0344a5f9fdf4b79574e5a083345180e2cf3e12f5d171a447750bbb1a2dcfa1b9",
      "transactionType": "CALL",
      "contractName": null,
      "contractAddress": "0xa86582ad5e80abc19f95f8a9fb3905cda0dabd59",
      "function": "approveMarketplace(address,uint256)",
      "arguments": [
        "0x70997970C51812dc3A010C7d01b50e0d17dc79C8",
        "0"
      ],
      "transaction": {
        "from": "0xf39fd6e51aad88f6f4ce6ab8827279cfffb92266",
        "to": "0xa86582ad5e80abc19f95f8a9fb3905cda0dabd59",
        "gas": "0x9f6e",
        "value": "0x0",
        "input": "0x2326cd8500000000000000000000000070997970c51812dc3a010c7d01b50e0d17dc79c80000000000000000000000000000000000000000000000000000000000000000",
        "nonce": "0x3a4",
        "chainId": "0x457"
      },
      "additionalContracts": [],
      "isFixedGasLimit": false
    }
  ],
  "receipts": [
    {
      "status": "0x1",
      "cumulativeGasUsed": "0xf7fe2",
      "logs": [
        {
          "address": "0xa86582ad5e80abc19f95f8a9fb3905cda0dabd59",
          "topics": [
            "0xddf252ad1be2c89b69c2b068fc378daa952ba7f163c4a11628f55a4df523b3ef",
            "0x0000000000000000000000000000000000000000000000000000000000000000",
            "0x000000000000000000000000f39fd6e51aad88f6f4ce6ab8827279cfffb92266",
            "0x0000000000000000000000000000000000000000000000000000000000000001"
          ],
          "data": "0x",
          "blockHash": "0x78ba2ee3c3a5e6dc1c24654f42fafc39781322772e057a9116362fa5e078177a",
          "blockNumber": "0x1521e75",
          "blockTimestamp": "0x67e917ae",
          "transactionHash": "0x97a51201602901eb90195343358fad0516036372b3330c4814677c2bd9e4037c",
          "transactionIndex": "0x0",
          "logIndex": "0x0",
          "removed": false
        }
      ],
      "logsBloom": "0x00000000000000000000000000000000000000000000000000000800000000000000000000000000000000000000000000000000000000000000000000040000000000000000000000000008000000000000000000040000000000000000000000000000020000000000000100000800000000000000000000000010000000000100000000000000000000000000000000000000000000000000000000000000000000000080000000000000000000000000000000000000000000000000000000000002000000200000000000000000000000002000000000000000000060000000000000000000000000000000000000000000000000000000000000000000",
      "type": "0x2",
      "transactionHash": "0x97a51201602901eb90195343358fad0516036372b3330c4814677c2bd9e4037c",
      "transactionIndex": "0x0",
      "blockHash": "0x78ba2ee3c3a5e6dc1c24654f42fafc39781322772e057a9116362fa5e078177a",
      "blockNumber": "0x1521e75",
      "gasUsed": "0xf7fe2",
      "effectiveGasPrice": "0x103edf47",
      "blobGasPrice": "0x1",
      "from": "0xf39fd6e51aad88f6f4ce6ab8827279cfffb92266",
      "to": "0xa86582ad5e80abc19f95f8a9fb3905cda0dabd59",
      "contractAddress": null
    },
    {
      "status": "0x1",
      "cumulativeGasUsed": "0x736e",
      "logs": [
        {
          "address": "0xa86582ad5e80abc19f95f8a9fb3905cda0dabd59",
          "topics": [
            "0x8c5be1e5ebec7d5bd14f71427d1e84f3dd0314c0f7b2291e5b200ac8c7c3b925",
            "0x000000000000000000000000f39fd6e51aad88f6f4ce6ab8827279cfffb92266",
            "0x00000000000000000000000070997970c51812dc3a010c7d01b50e0d17dc79c8",
            "0x0000000000000000000000000000000000000000000000000000000000000000"
          ],
          "data": "0x",
          "blockHash": "0xd63f924dec2254a95ae29703cc3c230896406f9be53847bdd85c6b541f774da1",
          "blockNumber": "0x1521e76",
          "blockTimestamp": "0x67e917ae",
          "transactionHash": "0x0344a5f9fdf4b79574e5a083345180e2cf3e12f5d171a447750bbb1a2dcfa1b9",
          "transactionIndex": "0x0",
          "logIndex": "0x0",
          "removed": false
        }
      ],
      "logsBloom": "0x00000000000000000002000000000000000000000000000000000800000000000000000000000000000000000000000000000000000000000000000000200000000000000000000000000000000000000000000000000000000000000000000000000800020000000000000100000800000000000000000000000000000000000100000000000000000000000000000000000000000000000000000000000000020000000080000000000000000000000000000000000000000000000000000000000000000000200000000000000000000000002000000000000000000020000010000000000000000000000000000001000000000000000000000000000000",
      "type": "0x2",
      "transactionHash": "0x0344a5f9fdf4b79574e5a083345180e2cf3e12f5d171a447750bbb1a2dcfa1b9",
      "transactionIndex": "0x0",
      "blockHash": "0xd63f924dec2254a95ae29703cc3c230896406f9be53847bdd85c6b541f774da1",
      "blockNumber": "0x1521e76",
      "gasUsed": "0x736e",
      "effectiveGasPrice": "0xe6658d7",
      "blobGasPrice": "0x1",
      "from": "0xf39fd6e51aad88f6f4ce6ab8827279cfffb92266",
      "to": "0xa86582ad5e80abc19f95f8a9fb3905cda0dabd59",
      "contractAddress": null
    }
  ],
  "libraries": [],
  "pending": [],
  "returns": {},
  "timestamp": 1743329200,
  "chain": 1111,
  "commit": "c4369a3"
}